:100000000C9434000C9451000C9451000C94510049
:100010000C9451000C9451000C9451000C9451001C
:100020000C9451000C9451000C9451000C94260136
:100030000C9451000C9451000C9451000C945100FC
:100040000C9451000C9451000C9451000C945100EC
:100050000C9451000C9451000C9451000C945100DC
:100060000C9451000C94510011241FBECFEFD8E026
:10007000DEBFCDBF11E0A0E0B1E0ECE3F7E002C0ED
:1000800005900D92A032B107D9F721E0A0E2B1E0CE
:1000900001C01D92A732B207E1F70E9485010C94BE
:1000A0009C030C94000087E690E09093C500809339
:1000B000C40088E08093C10086E08093C200089568
:1000C000E0ECF0E0908195FFFDCF8093C6000895AD
:1000D000CF93DF93EC018881882331F021960E9431
:1000E000600089918111FBCFDF91CF9108954F92EC
:1000F0005F926F927F928F929F92AF92BF92CF92B8
:10010000DF92EF92FF920F931F93CF93DF93CDB7C0
:10011000DEB760970FB6F894DEBF0FBECDBF4B01C0
:100120005C010E9443026B017C01CB01009711F03E
:100130002CF42DC080E30E94600029C0CE010196FE
:100140003C01FC01C60100E010E00F2EFAE04F2E4A
:10015000512CF02D01C0890198012F5F3F4FB20152
:100160000E947403805D8193862F972F18161906BD
:1001700094F3112364F00C0F1D1F0E5F1F4FF80145
:1001800082918F010E94600060167106C1F78EE2B5
:100190000E946000B601DD0C880B990B0E947B0267
:1001A0009B01AC01C501B4010E94D60103E010E03F
:1001B00020E030E040E251E40E9407034B015C0183
:1001C0000E9443026B017C0180E38C0D0E94600061
:1001D000B601DD0C880B990B0E947B029B01AC01E0
:1001E000C501B4010E94D6010150110909F76096BA
:1001F0000FB6F894DEBF0FBECDBFDF91CF911F9138
:100200000F91FF90EF90DF90CF90BF90AF909F90B5
:100210008F907F906F905F904F9008951092800024
:100220008AE0809381008AE090E090938900809337
:10023000880082E080936F00109285001092840005
:100240000895209A2198299A289808951F920F922C
:100250000FB60F9211248F939F93AF93BF9380910A
:100260002101882309F448C080912201811102C034
:10027000289832C080912201833370F58091220149
:1002800080FF02C0289A28C028988091230190916D
:100290002401A0912501B0912601880F991FAA1F62
:1002A000BB1F8093230190932401A0932501B09359
:1002B0002601199B11C08091230190912401A091E6
:1002C0002501B09126018160809323019093240140
:1002D000A0932501B0932601809122018F5F809326
:1002E000220180912201833338F010922101109273
:1002F000220181E080932001BF91AF919F918F9166
:100300000F900FBE0F901F9018950E9421010E9420
:1003100053000E940E01789480E091E00E946800F2
:10032000C12CD12C7601C1E080912101811115C031
:1003300080EAC81686E8D80681E0E806F10468F08D
:10034000109223011092240110922501109226018F
:10035000C0932101C12CD12C76018FEFC81AD80A85
:10036000E80AF80A809120018823F1F280902301A5
:1003700090902401A0902501B090260180E191E0A9
:100380000E946800C501B40199270E9479022AE001
:1003900037ED43EA5BE30E9407030E9477008BE19D
:1003A00091E00E94680010922001BECF5058BB27F8
:1003B000AA270E94EE010C94CD020E94BF0238F0E1
:1003C0000E94C60220F039F49F3F19F426F40C94E1
:1003D000BC020EF4E095E7FB0C94B602E92F0E94F4
:1003E000DE0258F3BA17620773078407950720F0F7
:1003F00079F4A6F50C9400030EF4E0950B2EBA2FB9
:10040000A02D0B01B90190010C01CA01A00111241A
:10041000FF27591B99F0593F50F4503E68F11A16C6
:10042000F040A22F232F342F4427585FF3CF469557
:1004300037952795A795F0405395C9F77EF41F1679
:10044000BA0B620B730B840BBAF09150A1F0FF0F43
:10045000BB1F661F771F881FC2F70EC0BA0F621F2F
:10046000731F841F48F4879577956795B795F7951F
:100470009E3F08F0B0CF9395880F08F09927EE0FB4
:100480009795879508950E944A026894B1110C943B
:10049000010308950E94E60288F09F5798F0B92F53
:1004A0009927B751B0F0E1F0660F771F881F991FA9
:1004B0001AF0BA95C9F714C0B13091F00E94000348
:1004C000B1E008950C940003672F782F8827B85F58
:1004D00039F0B93FCCF3869577956795B395D9F701
:1004E0003EF490958095709561957F4F8F4F9F4F0B
:1004F0000895E89409C097FB3EF490958095709517
:1005000061957F4F8F4F9F4F9923A9F0F92F96E95F
:10051000BB279395F695879577956795B795F111D4
:10052000F8CFFAF4BB0F11F460FF1BC06F5F7F4F71
:100530008F4F9F4F16C0882311F096E911C0772383
:1005400021F09EE8872F762F05C0662371F096E88C
:10055000862F70E060E02AF09A95660F771F881F5B
:10056000DAF7880F9695879597F9089597F99F6719
:1005700080E870E060E008959FEF80EC089500242B
:100580000A941616170618060906089500240A94F8
:1005900012161306140605060895092E0394000C7E
:1005A00011F4882352F0BB0F40F4BF2B11F460FF0D
:1005B00004C06F5F7F4F8F4F9F4F089557FD905836
:1005C000440F551F59F05F3F71F04795880F97FB17
:1005D000991F61F09F3F79F08795089512161306D1
:1005E0001406551FF2CF4695F1DF08C01616170600
:1005F0001806991FF1CF8695710561050894089535
:10060000E894BB2766277727CB0197F908950E94C6
:100610001A030C94CD020E94BF0238F00E94C60259
:1006200020F0952311F00C94B6020C94BC02112416
:100630000C9401030E94DE0270F3959FC1F3950FA5
:1006400050E0551F629FF001729FBB27F00DB11D56
:10065000639FAA27F00DB11DAA1F649F6627B00DE6
:10066000A11D661F829F2227B00DA11D621F739FCF
:10067000B00DA11D621F839FA00D611D221F749FDD
:100680003327A00D611D231F849F600D211D822F24
:10069000762F6A2F11249F5750409AF0F1F088234B
:1006A0004AF0EE0FFF1FBB1F661F771F881F915078
:1006B0005040A9F79E3F510580F00C94B6020C946F
:1006C00001035F3FE4F3983ED4F3869577956795F1
:1006D000B795F795E7959F5FC1F7FE2B880F911DA2
:1006E0009695879597F9089597FB072E16F4009431
:1006F00007D077FD09D00E94880307FC05D03EF49F
:10070000909581959F4F0895709561957F4F0895BD
:10071000AA1BBB1B51E107C0AA1FBB1FA617B70727
:1007200010F0A61BB70B881F991F5A95A9F7809543
:0C0730009095BC01CD010895F894FFCF16
:10073C0053797374656D20537461727465640A0027
:10074C00506F736974696F6E3A2000206D6D0A00EA
:00000001FF
